:100000000C942A000C9434000C9434000C943400AA
:100010000C9434000C9434000C9434000C94340090
:100020000C9434000C9434000C9434000C94340080
:100030000C9434000C9434000C9434000C94340070
:100040000C9434000C9434000C9434000C94340060
:100050000C94340011241FBECFE5D8E0DEBFCDBF25
:100060000E9424010C9460010C940000813019F16D
:1000700030F08230E1F1833009F454C00895411129
:100080000CC02AB381E090E002C0880F991F6A95E6
:10009000E2F7809582238ABB0895413009F05CC065
:1000A0002AB381E090E002C0880F991F6A95E2F7B9
:1000B000822B8ABB089541110CC027B381E090E0E8
:1000C00002C0880F991F6A95E2F78095822387BB4B
:1000D0000895413009F040C027B381E090E002C0AC
:1000E000880F991F6A95E2F7822B87BB089541110B
:1000F0000CC024B381E090E002C0880F991F6A957C
:10010000E2F78095822384BB0895413029F524B31A
:1001100081E090E002C0880F991F6A95E2F7822B78
:1001200084BB089541110CC021B381E090E002C06E
:10013000880F991F6A95E2F78095822381BB089505
:10014000413051F421B381E090E002C0880F991F43
:100150006A95E2F7822B81BB0895813019F130F066
:100160008230E1F1833009F454C0089541110CC08C
:100170002BB381E090E002C0880F991F6A95E2F7E7
:10018000809582238BBB0895413009F05CC02BB36E
:1001900081E090E002C0880F991F6A95E2F7822BF8
:1001A0008BBB089541110CC028B381E090E002C0E0
:1001B000880F991F6A95E2F78095822388BB08957E
:1001C000413009F040C028B381E090E002C0880FC0
:1001D000991F6A95E2F7822B88BB089541110CC0E4
:1001E00025B381E090E002C0880F991F6A95E2F77D
:1001F0008095822385BB0895413029F525B381E0A0
:1002000090E002C0880F991F6A95E2F7822B85BBA8
:10021000089541110CC022B381E090E002C0880F24
:10022000991F6A95E2F78095822382BB0895413039
:1002300051F422B381E090E002C0880F991F6A95C3
:10024000E2F7822B82BB089541E067E082E00E94E2
:10025000360040E065E081E00E94360041E066E063
:1002600081E00E94360040E064E081E00E943600B8
:1002700040E067E081E00E9436000E94550181E382
:100280000E945B01813331F441E067E082E00E942B
:10029000AD00F5CF80E30E945B01803381F740E041
:1002A00067E082E00E94AD00EACF6E9A6D9A6C988A
:1002B0006B986A9808958FB9779BFECF8FB1089598
:0402C000F894FFCFE0
:00000001FF
