:100000000C942A000C943F000C943F000C943F0089
:100010000C943F000C943F000C943F000C943F0064
:100020000C943F000C943F000C943F000C943F0054
:100030000C943F000C943F000C943F000C943F0044
:100040000C943F000C943F000C943F000C943F0034
:100050000C943F0011241FBECFE5D8E0DEBFCDBF1A
:1000600010E0A0E6B0E0EEE6F5E002C005900D92EB
:10007000AE36B107D9F70E9488020C94B5020C94F1
:100080000000813019F130F08230E1F1833009F461
:1000900054C0089541110CC02AB381E090E002C021
:1000A000880F991F6A95E2F7809582238ABB08958D
:1000B000413009F05CC02AB381E090E002C0880FB3
:1000C000991F6A95E2F7822B8ABB089541110CC0F3
:1000D00027B381E090E002C0880F991F6A95E2F78C
:1000E0008095822387BB0895413009F040C027B333
:1000F00081E090E002C0880F991F6A95E2F7822B99
:1001000087BB089541110CC024B381E090E002C088
:10011000880F991F6A95E2F78095822384BB089522
:10012000413029F524B381E090E002C0880F991F87
:100130006A95E2F7822B84BB089541110CC021B36C
:1001400081E090E002C0880F991F6A95E2F78095E0
:10015000822381BB0895413051F421B381E090E0C6
:1001600002C0880F991F6A95E2F7822B81BB089520
:10017000813019F130F08230E1F1833009F454C05C
:10018000089541110CC02BB381E090E002C0880FAC
:10019000991F6A95E2F7809582238BBB08954130C1
:1001A00009F05CC02BB381E090E002C0880F991F7A
:1001B0006A95E2F7822B8BBB089541110CC028B3DE
:1001C00081E090E002C0880F991F6A95E2F7809560
:1001D000822388BB0895413009F040C028B381E0F4
:1001E00090E002C0880F991F6A95E2F7822B88BBC6
:1001F000089541110CC025B381E090E002C0880F42
:10020000991F6A95E2F78095822385BB0895413056
:1002100029F525B381E090E002C0880F991F6A9507
:10022000E2F7822B85BB089541110CC022B381E017
:1002300090E002C0880F991F6A95E2F780958223AB
:1002400082BB0895413051F422B381E090E002C0B6
:10025000880F991F6A95E2F7822B82BB089581303F
:1002600091F028F08230D9F0833029F1089561119E
:1002700004C08AB38F708ABB0895613039F58AB3A0
:10028000806F8ABB0895611104C087B38F7087BBEC
:1002900008956130D9F487B3806F87BB08956111E9
:1002A00004C084B38F7084BB0895613079F484B343
:1002B000806F84BB0895611104C081B38F7081BBCE
:1002C0000895613019F481B3806F81BB0895813046
:1002D00089F028F08230C9F0833011F108958BB392
:1002E0008F708BBB8BB390E1699FB0011124682B99
:1002F0006BBB089588B38F7088BB88B390E1699F0A
:10030000B0011124682B68BB089585B38F7085BB3D
:1003100085B390E1699FB0011124682B65BB0895F6
:1003200082B38F7082BB82B390E1699FB0011124C8
:10033000682B62BB0895CF93C82F40E060E082E055
:100340000E94B80040E061E082E00E94B8006C2F9B
:1003500082E00E94670141E062E082E00E94B80012
:100360008FE097E20197F1F700C0000040E062E003
:1003700082E00E94B8008FEC97E00197F1F700C08F
:100380000000CF91089582E00E949B0182E00E94CC
:100390009B0188E20E949B0180E00E949B018FE00C
:1003A0000E949B0180E00E949B0181E00E949B01D2
:1003B0008FE99FE00197F1F700C0000080E00E9404
:1003C0009B0186E00E949B010895CF93C82F41E0D6
:1003D00060E082E00E94B80040E061E082E00E94BC
:1003E000B8006C2F82E00E94670141E062E082E089
:1003F0000E94B8008FE097E20197F1F700C000007B
:1004000040E062E082E00E94B8008FEC97E0019744
:10041000F1F700C00000CF910895CF93C82F8295C7
:100420008F700E94E5018C2F0E94E501CF91089505
:100430001F93CF93DF9300D000D01F92CDB7DEB7CC
:10044000AC01892B21F480E30E940D0242C010E030
:1004500001C0182F9A01ADECBCEC0E94A602969543
:10046000879596958795969587959C01220F331FC2
:10047000880F991F880F991F880F991F820F931F4C
:100480009A01281B390BE1E0F0E0EC0FFD1FE10FB2
:10049000F11D20839A010E94A602AC015695479552
:1004A000569547955695479581E0810F4115510521
:1004B00081F6112374F0E1E0F0E0EC0FFD1FE10F95
:1004C000F11D17FDFA958081805D0E940D0211508B
:1004D00092F70F900F900F900F900F90DF91CF91A8
:1004E0001F9108950F931F93CF93FC018081882360
:1004F00059F08F01C0E00E940D02CF5FF801EC0FB0
:10050000F11D80818111F7CFCF911F910F91089537
:1005100041E060E082E00E94410041E061E082E071
:100520000E94410041E062E082E00E94410061E0FF
:1005300082E00E942F010E94C30180E690E00E94A9
:10054000720289EC97E00E941802FFCFA29FB001CF
:10055000B39FC001A39F700D811D1124911DB29FF7
:0E056000700D811D1124911D0895F894FFCF98
:0E056E004D61686D6F756447616D616C0000D2
:00000001FF
