S00B00004143442E7372656351
S11300000C942A000C9434000C9434000C943400A6
S11300100C9434000C9434000C9434000C9434008C
S11300200C9434000C9434000C9434000C9434007C
S11300300C9434000C9434000C9434000C9434006C
S11300400C9434000C9434000C9434000C9434005C
S11300500C94340011241FBECFE5D8E0DEBFCDBF21
S11300600E948D020C94D9020C9400003E9A3F9891
S11300703D98309A319A329A379A089597B1907E82
S113008097B997B1892B87B9369A349BFECF0895D7
S113009084B195B108959C01A8E8B3E10E94CA0215
S11300A0DC01CB01072E7AE0B695A7959795879545
S11300B07A95D1F7702D0895813019F130F082309E
S11300C0E1F1833009F454C0089541110CC02AB3FE
S11300D081E090E002C0880F991F6A95E2F780954D
S11300E082238ABB0895413009F05CC02AB381E0C1
S11300F090E002C0880F991F6A95E2F7822B8ABBB1
S1130100089541110CC027B381E090E002C0880F2C
S1130110991F6A95E2F78095822387BB0895413041
S113012009F040C027B381E090E002C0880F991F16
S11301306A95E2F7822B87BB089541110CC024B362
S113014081E090E002C0880F991F6A95E2F78095DC
S1130150822384BB0895413029F524B381E090E0E3
S113016002C0880F991F6A95E2F7822B84BB089519
S113017041110CC021B381E090E002C0880F991FA7
S11301806A95E2F78095822381BB0895413051F44A
S113019021B381E090E002C0880F991F6A95E2F7CD
S11301A0822B81BB0895813019F130F08230E1F166
S11301B0833009F454C0089541110CC02BB381E07D
S11301C090E002C0880F991F6A95E2F78095822318
S11301D08BBB0895413009F05CC02BB381E090E003
S11301E002C0880F991F6A95E2F7822B8BBB089592
S11301F041110CC028B381E090E002C0880F991F20
S11302006A95E2F78095822388BB0895413009F00E
S113021040C028B381E090E002C0880F991F6A951E
S1130220E2F7822B88BB089541110CC025B381E00D
S113023090E002C0880F991F6A95E2F780958223A7
S113024085BB0895413029F525B381E090E002C0D3
S1130250880F991F6A95E2F7822B85BB0895411197
S11302600CC022B381E090E002C0880F991F6A9508
S1130270E2F78095822382BB0895413051F422B382
S113028081E090E002C0880F991F6A95E2F7822B03
S113029082BB0895813091F028F08230D9F0833008
S11302A029F10895611104C08AB38F708ABB08953F
S11302B0613039F58AB3806F8ABB0895611104C037
S11302C087B38F7087BB08956130D9F487B3806F8B
S11302D087BB0895611104C084B38F7084BB0895F3
S11302E0613079F484B3806F84BB0895611104C0D4
S11302F081B38F7081BB0895613019F481B3806F2D
S113030081BB0895813089F028F08230C9F08330B0
S113031011F108958BB38F708BBB8BB390E1699F00
S1130320B0011124682B6BBB089588B38F7088BB10
S113033088B390E1699FB0011124682B68BB0895CC
S113034085B38F7085BB85B390E1699FB00111249B
S1130350682B65BB089582B38F7082BB82B390E132
S1130360699FB0011124682B62BB0895CF93C82FF5
S113037040E060E082E00E94D30040E061E082E07F
S11303800E94D3006C2F82E00E94820141E062E06F
S113039082E00E94D3008FE097E20197F1F700C05A
S11303A0000040E062E082E00E94D3008FEC97E01E
S11303B00197F1F700C00000CF91089582E00E94F8
S11303C0B60182E00E94B60188E20E94B60180E094
S11303D00E94B6018FE00E94B60180E00E94B6013F
S11303E081E00E94B6018FE99FE00197F1F700C018
S11303F0000080E00E94B60186E00E94B6010895E4
S1130400CF93C82F41E060E082E00E94D30040E037
S113041061E082E00E94D3006C2F82E00E9482019E
S113042041E062E082E00E94D3008FE097E201970E
S1130430F1F700C0000040E062E082E00E94D300D7
S11304408FEC97E00197F1F700C00000CF91089579
S1130450CF93C82F82958F700E9400028C2F0E9428
S11304600002CF9108951F93CF93DF9300D000D063
S11304701F92CDB7DEB7AC01892B21F480E30E9433
S1130480280242C010E001C0182F9A01ADECBCEC68
S11304900E94CA0296958795969587959695879515
S11304A09C01220F331F880F991F880F991F880FF3
S11304B0991F820F931F9A01281B390BE1E0F0E08A
S11304C0EC0FFD1FE10FF11D20839A010E94CA0267
S11304D0AC0156954795569547955695479581E0B5
S11304E0810F4115510581F6112374F0E1E0F0E02C
S11304F0EC0FFD1FE10FF11D17FDFA958081805D62
S11305000E942802115092F70F900F900F900F90B5
S11305100F90DF91CF911F91089541E060E082E058
S11305200E945C0041E061E082E00E945C0041E0E6
S113053062E082E00E945C0061E082E00E944A0185
S113054040E060E080E00E945C000E94DE010E94C6
S1130550360000E010E080E00E943E000E94480067
S11305600E944B00EC010817190749F080E00E9433
S1130570B60181E00E94B601CE010E9433022FEF42
S113058084E39CE0215080409040E1F700C00000EB
S11305908E01E1CFA29FB001B39FC001A39F700D54
S11305A0811D1124911DB29F700D811D1124911D77
S10905B00895F894FFCF4A
S9030000FC
