S0110000426C696E6B5F4C45442E73726563EF
S11300000C942A000C943C000C943C000C943C008E
S11300100C943C000C943C000C943C000C943C006C
S11300200C943C000C943C000C943D010C943C005A
S11300300C943C000C943C000C943C000C943C004C
S11300400C943C000C943C000C943C000C943C003C
S11300500C943C0011241FBECFE5D8E0DEBFCDBF19
S113006020E0A0E6B0E001C01D92A236B207E1F79D
S11300700E9430010C9499010C940000813019F114
S113008030F08230E1F1833009F454C00895411115
S11300900CC02AB381E090E002C0880F991F6A95D2
S11300A0E2F7809582238ABB0895413009F05CC051
S11300B02AB381E090E002C0880F991F6A95E2F7A5
S11300C0822B8ABB089541110CC027B381E090E0D4
S11300D002C0880F991F6A95E2F78095822387BB37
S11300E00895413009F040C027B381E090E002C098
S11300F0880F991F6A95E2F7822B87BB08954111F7
S11301000CC024B381E090E002C0880F991F6A9567
S1130110E2F78095822384BB0895413029F524B306
S113012081E090E002C0880F991F6A95E2F7822B64
S113013084BB089541110CC021B381E090E002C05A
S1130140880F991F6A95E2F78095822381BB0895F1
S1130150413051F421B381E090E002C0880F991F2F
S11301606A95E2F7822B81BB0895813019F130F052
S11301708230E1F1833009F454C0089541110CC078
S11301802BB381E090E002C0880F991F6A95E2F7D3
S1130190809582238BBB0895413009F05CC02BB35A
S11301A081E090E002C0880F991F6A95E2F7822BE4
S11301B08BBB089541110CC028B381E090E002C0CC
S11301C0880F991F6A95E2F78095822388BB08956A
S11301D0413009F040C028B381E090E002C0880FAC
S11301E0991F6A95E2F7822B88BB089541110CC0D0
S11301F025B381E090E002C0880F991F6A95E2F769
S11302008095822385BB0895413029F525B381E08B
S113021090E002C0880F991F6A95E2F7822B85BB94
S1130220089541110CC022B381E090E002C0880F10
S1130230991F6A95E2F78095822382BB0895413025
S113024051F422B381E090E002C0880F991F6A95AF
S1130250E2F7822B82BB08958FB780688FBF089521
S113026041E067E082E00E943E008AEF0E9497012D
S11302700E947E010E942C01FFCF1F920F920FB6A5
S11302800F9211242F933F934F935F936F937F9318
S11302908F939F93AF93BF93EF93FF9380916100EC
S11302A08F5F809361008A3FC1F480916000811167
S11302B009C041E067E082E00E94B50081E08093DC
S11302C060000BC0813049F440E067E082E00E94A6
S11302D0B5001092600010926100FF91EF91BF9100
S11302E0AF919F918F917F916F915F914F913F91CA
S11302F02F910F900FBE0F901F90189583B78860B1
S113030083BF83B78F7B83BF83B78F7D83BF83B75F
S11303108F7E83BF83B7846083BF83B78D7F83BFA2
S113032083B78E7F83BF89B7826089BF08958CBFEE
S10903300895F894FFCFCC
S9030000FC
