S0110000426C696E6B5F4C45442E73726563EF
S11300000C942A000C9434000C9434000C943400A6
S11300100C9434000C9434000C9434000C9434008C
S11300200C9434000C9434000C9434000C9434007C
S11300300C9434000C9434000C9434000C9434006C
S11300400C9434000C9434000C9434000C9434005C
S11300500C94340011241FBECFE5D8E0DEBFCDBF21
S11300600E94AD000C94DE000C940000813019F164
S113007030F08230E1F1833009F454C00895411125
S11300800CC02AB381E090E002C0880F991F6A95E2
S1130090E2F7809582238ABB0895413009F05CC061
S11300A02AB381E090E002C0880F991F6A95E2F7B5
S11300B0822B8ABB089541110CC027B381E090E0E4
S11300C002C0880F991F6A95E2F78095822387BB47
S11300D00895413009F040C027B381E090E002C0A8
S11300E0880F991F6A95E2F7822B87BB0895411107
S11300F00CC024B381E090E002C0880F991F6A9578
S1130100E2F78095822384BB0895413029F524B316
S113011081E090E002C0880F991F6A95E2F7822B74
S113012084BB089541110CC021B381E090E002C06A
S1130130880F991F6A95E2F78095822381BB089501
S1130140413051F421B381E090E002C0880F991F3F
S11301506A95E2F7822B81BB089541E065E083E074
S11301600E9436000E94C30088E09DE30E94DB00E9
S113017090E208B604FE03C082B3892782BB88B725
S11301808F7E88BFF6CF8FB58E7F8FBD8FB58D7F65
S11301908FBD8EB588608EBD8EB58F7E8EBD8EB5BB
S11301A081608EBD8EB58D7F8EBD8EB584608EBD13
S11301B01DBC1CBC08959BBD8ABD0895F894FFCF57
S9030000FC
