S00E00004B65797061642E73726563B8
S11300000C942A000C943F000C943F000C943F0085
S11300100C943F000C943F000C943F000C943F0060
S11300200C943F000C943F000C943F000C943F0050
S11300300C943F000C943F000C943F000C943F0040
S11300400C943F000C943F000C943F000C943F0030
S11300500C943F0011241FBECFE5D8E0DEBFCDBF16
S113006010E0A0E6B0E0E6E4F6E002C005900D92F0
S1130070A037B107D9F70E94F5020C9421030C9420
S11300800000813019F130F08230E1F1833009F45D
S113009054C0089541110CC02AB381E090E002C01D
S11300A0880F991F6A95E2F7809582238ABB089589
S11300B0413009F05CC02AB381E090E002C0880FAF
S11300C0991F6A95E2F7822B8ABB089541110CC0EF
S11300D027B381E090E002C0880F991F6A95E2F788
S11300E08095822387BB0895413009F040C027B32F
S11300F081E090E002C0880F991F6A95E2F7822B95
S113010087BB089541110CC024B381E090E002C084
S1130110880F991F6A95E2F78095822384BB08951E
S1130120413029F524B381E090E002C0880F991F83
S11301306A95E2F7822B84BB089541110CC021B368
S113014081E090E002C0880F991F6A95E2F78095DC
S1130150822381BB0895413051F421B381E090E0C2
S113016002C0880F991F6A95E2F7822B81BB08951C
S1130170813019F130F08230E1F1833009F454C058
S1130180089541110CC02BB381E090E002C0880FA8
S1130190991F6A95E2F7809582238BBB08954130BD
S11301A009F05CC02BB381E090E002C0880F991F76
S11301B06A95E2F7822B8BBB089541110CC028B3DA
S11301C081E090E002C0880F991F6A95E2F780955C
S11301D0822388BB0895413009F040C028B381E0F0
S11301E090E002C0880F991F6A95E2F7822B88BBC2
S11301F0089541110CC025B381E090E002C0880F3E
S1130200991F6A95E2F78095822385BB0895413052
S113021029F525B381E090E002C0880F991F6A9503
S1130220E2F7822B85BB089541110CC022B381E013
S113023090E002C0880F991F6A95E2F780958223A7
S113024082BB0895413051F422B381E090E002C0B2
S1130250880F991F6A95E2F7822B82BB089581303B
S113026079F028F08230A9F08330E1F024C089B31A
S113027090E002C0959587956A95E2F7817008959C
S113028086B390E002C0959587956A95E2F78170F0
S1130290089583B390E002C0959587956A95E2F737
S11302A08170089580B390E002C0959587956A9512
S11302B0E2F78170089580E00895813091F028F08C
S11302C08230D9F0833029F10895611104C08AB3D2
S11302D0807F8ABB0895613039F58AB38F608ABB09
S11302E00895611104C087B3807F87BB089561308E
S11302F0D9F487B38F6087BB0895611104C084B3B8
S1130300807F84BB0895613079F484B38F6084BBAB
S11303100895611104C081B3807F81BB0895613069
S113032019F481B38F6081BB0895813091F028F076
S11303308230D9F0833029F10895611104C08AB361
S11303408F708ABB0895613039F58AB3806F8ABB98
S11303500895611104C087B38F7087BB089561301D
S1130360D9F487B3806F87BB0895611104C084B347
S11303708F7084BB0895613079F484B3806F84BB3B
S11303800895611104C081B38F7081BB08956130F9
S113039019F481B3806F81BB0895813069F028F02E
S11303A0823089F08330B1F008958BB3807F8BBBAA
S11303B08BB3682B6BBB089588B3807F88BB88B3ED
S11303C0682B68BB089585B3807F85BB85B3682B94
S11303D065BB089582B3807F82BB82B3682B62BB06
S11303E00895813089F028F08230C9F0833011F10A
S11303F008958BB38F708BBB8BB390E1699FB00171
S11304001124682B6BBB089588B38F7088BB88B3A5
S113041090E1699FB0011124682B68BB089585B3EE
S11304208F7085BB85B390E1699FB0011124682B5F
S113043065BB089582B38F7082BB82B390E1699FDC
S1130440B0011124682B62BB08950F931F93CF93BF
S1130450DF93CDB7DEB760970FB6F894DEBF0FBE5B
S1130460CDBF80E1E0E6F0E0DE01119601900D924F
S11304708A95E1F700E040E0602F80E00E94B80038
S113048010E0612F81E00E942F0181111AC006C083
S11304908FE493EC0197F1F700C00000612F81E035
S11304A00E942F018823A1F3E1E0F0E0EC0FFD1F8F
S11304B094E0199FE00DF11D1124E00FF11D8081DE
S11304C00CC01F5F1430E9F641E0602F80E00E9409
S11304D0B8000F5F043079F685E760960FB6F8949C
S11304E0DEBF0FBECDBFDF91CF911F910F91089555
S11304F0CF93C82F40E060E082E00E94B80040E063
S113050061E082E00E94B8006C2F82E00E94F10159
S113051041E062E082E00E94B8008FE097E2019738
S1130520F1F700C0000040E062E082E00E94B80001
S11305308FEC97E00197F1F700C00000CF91089588
S113054082E00E94780282E00E94780288E20E949F
S1130550780280E00E9478028FE00E94780280E0B6
S11305600E94780281E00E9478028FE99FE001975F
S1130570F1F700C0000080E00E94780286E00E944B
S113058078020895CF93C82F41E060E082E00E9492
S1130590B80040E061E082E00E94B8006C2F82E085
S11305A00E94F10141E062E082E00E94B8008FE025
S11305B097E20197F1F700C0000040E062E082E0BA
S11305C00E94B8008FEC97E00197F1F700C000009B
S11305D0CF910895CF93C82F82958F700E94C20245
S11305E08C2F0E94C202CF91089561E080E00E94A6
S11305F05D0160E081E00E945D016FE081E00E94A6
S1130600CD016FE080E00E945D0141E060E082E0A6
S11306100E94410041E061E082E00E94410041E02B
S113062062E082E00E94410061E082E00E94950164
S11306300E94A0020E9425028537E1F30E94EA028B
S1090640F9CFF894FFCF8E
S11306463738392F343536783132332D43303D2B14
S9030000FC
