:100000000C942A000C9434000C9434000C943400AA
:100010000C9434000C9434000C9434000C94340090
:100020000C9434000C9434000C9434000C94340080
:100030000C9434000C9434000C9434000C94340070
:100040000C9434000C9434000C9434000C94340060
:100050000C94340011241FBECFE5D8E0DEBFCDBF25
:100060000E9452010C94D9010C940000813019F1C6
:1000700030F08230E1F1833009F454C00895411129
:100080000CC02AB381E090E002C0880F991F6A95E6
:10009000E2F7809582238ABB0895413009F05CC065
:1000A0002AB381E090E002C0880F991F6A95E2F7B9
:1000B000822B8ABB089541110CC027B381E090E0E8
:1000C00002C0880F991F6A95E2F78095822387BB4B
:1000D0000895413009F040C027B381E090E002C0AC
:1000E000880F991F6A95E2F7822B87BB089541110B
:1000F0000CC024B381E090E002C0880F991F6A957C
:10010000E2F78095822384BB0895413029F524B31A
:1001100081E090E002C0880F991F6A95E2F7822B78
:1001200084BB089541110CC021B381E090E002C06E
:10013000880F991F6A95E2F78095822381BB089505
:10014000413051F421B381E090E002C0880F991F43
:100150006A95E2F7822B81BB0895813019F130F066
:100160008230E1F1833009F454C0089541110CC08C
:100170002BB381E090E002C0880F991F6A95E2F7E7
:10018000809582238BBB0895413009F05CC02BB36E
:1001900081E090E002C0880F991F6A95E2F7822BF8
:1001A0008BBB089541110CC028B381E090E002C0E0
:1001B000880F991F6A95E2F78095822388BB08957E
:1001C000413009F040C028B381E090E002C0880FC0
:1001D000991F6A95E2F7822B88BB089541110CC0E4
:1001E00025B381E090E002C0880F991F6A95E2F77D
:1001F0008095822385BB0895413029F525B381E0A0
:1002000090E002C0880F991F6A95E2F7822B85BBA8
:10021000089541110CC022B381E090E002C0880F24
:10022000991F6A95E2F78095822382BB0895413039
:1002300051F422B381E090E002C0880F991F6A95C3
:10024000E2F7822B82BB0895813079F028F082306A
:10025000A9F08330E1F024C089B390E002C0959505
:1002600087956A95E2F78170089586B390E002C0A1
:10027000959587956A95E2F78170089583B390E02C
:1002800002C0959587956A95E2F78170089580B3CD
:1002900090E002C0959587956A95E2F78170089580
:1002A00080E0089540E060E081E00E94360041E097
:1002B00060E081E00E94AD0080E00E9486010E9423
:1002C000950180E20E94B60160E081E00E94240175
:1002D000811104C081E00E94CA0109C060E081E090
:1002E0000E942401813019F480E00E94CA012FEF9E
:1002F00081EE94E0215080409040E1F700C0000082
:100300000E94A50180E20E94B601DECF882311F091
:10031000880F82B986B7806486BF86B7846086BF3F
:100320000898099883E080B9089586B7806286BFEF
:1003300086B7806886BF06B607FEFDCF91B1987F6D
:1003400081E0983009F480E0089586B7806286BF26
:1003500086B7806886BF06B607FEFDCF81B1887F6D
:10036000803111F082E0089580E00895880F83B90C
:10037000189886B78F7D86BF86B7806886BF06B619
:1003800007FEFDCF81B1887F883111F083E00895A9
:1003900080E0089583B986B7806886BF06B607FEF9
:1003A000FDCF81B1887F883211F085E0089580E02B
:0603B0000895F894FFCF50
:00000001FF
