S00B00005350492E737265632D
S11300000C942A000C9434000C9434000C943400A6
S11300100C9434000C9434000C9434000C9434008C
S11300200C9434000C9434000C9434000C9434007C
S11300300C9434000C9434000C9434000C9434006C
S11300400C9434000C9434000C9434000C9434005C
S11300500C94340011241FBECFE5D8E0DEBFCDBF21
S11300600E9452010C9499010C940000813019F102
S113007030F08230E1F1833009F454C00895411125
S11300800CC02AB381E090E002C0880F991F6A95E2
S1130090E2F7809582238ABB0895413009F05CC061
S11300A02AB381E090E002C0880F991F6A95E2F7B5
S11300B0822B8ABB089541110CC027B381E090E0E4
S11300C002C0880F991F6A95E2F78095822387BB47
S11300D00895413009F040C027B381E090E002C0A8
S11300E0880F991F6A95E2F7822B87BB0895411107
S11300F00CC024B381E090E002C0880F991F6A9578
S1130100E2F78095822384BB0895413029F524B316
S113011081E090E002C0880F991F6A95E2F7822B74
S113012084BB089541110CC021B381E090E002C06A
S1130130880F991F6A95E2F78095822381BB089501
S1130140413051F421B381E090E002C0880F991F3F
S11301506A95E2F7822B81BB0895813019F130F062
S11301608230E1F1833009F454C0089541110CC088
S11301702BB381E090E002C0880F991F6A95E2F7E3
S1130180809582238BBB0895413009F05CC02BB36A
S113019081E090E002C0880F991F6A95E2F7822BF4
S11301A08BBB089541110CC028B381E090E002C0DC
S11301B0880F991F6A95E2F78095822388BB08957A
S11301C0413009F040C028B381E090E002C0880FBC
S11301D0991F6A95E2F7822B88BB089541110CC0E0
S11301E025B381E090E002C0880F991F6A95E2F779
S11301F08095822385BB0895413029F525B381E09C
S113020090E002C0880F991F6A95E2F7822B85BBA4
S1130210089541110CC022B381E090E002C0880F20
S1130220991F6A95E2F78095822382BB0895413035
S113023051F422B381E090E002C0880F991F6A95BF
S1130240E2F7822B82BB0895813079F028F0823066
S1130250A9F08330E1F024C089B390E002C0959501
S113026087956A95E2F78170089586B390E002C09D
S1130270959587956A95E2F78170089583B390E028
S113028002C0959587956A95E2F78170089580B3C9
S113029090E002C0959587956A95E2F7817008957C
S11302A080E0089540E060E081E00E94360041E093
S11302B060E081E00E94AD0041E065E081E00E94E1
S11302C0360040E066E081E00E94360041E064E0F0
S11302D081E00E94360041E067E081E00E94360040
S11302E040E064E081E00E94AD000E948B0160E088
S11302F081E00E942401811104C081E30E949401E1
S1130300F6CF60E081E00E942401882381F380E33A
S11303100E949401ECCF6E9A6D9A6C9A6B986A98CD
S1130320699A7098689808958FB9779BFECF8FB1BA
S10903300895F894FFCFCC
S9030000FC
