:100000000C942A000C9434000C9434000C943400AA
:100010000C9434000C9434000C9434000C94340090
:100020000C9434000C9434000C9434000C94340080
:100030000C9434000C9434000C9434000C94340070
:100040000C9434000C9434000C9434000C94340060
:100050000C94340011241FBECFE5D8E0DEBFCDBF25
:100060000E94AD000C9406010C940000813019F13F
:1000700030F08230E1F1833009F454C00895411129
:100080000CC02AB381E090E002C0880F991F6A95E6
:10009000E2F7809582238ABB0895413009F05CC065
:1000A0002AB381E090E002C0880F991F6A95E2F7B9
:1000B000822B8ABB089541110CC027B381E090E0E8
:1000C00002C0880F991F6A95E2F78095822387BB4B
:1000D0000895413009F040C027B381E090E002C0AC
:1000E000880F991F6A95E2F7822B87BB089541110B
:1000F0000CC024B381E090E002C0880F991F6A957C
:10010000E2F78095822384BB0895413029F524B31A
:1001100081E090E002C0880F991F6A95E2F7822B78
:1001200084BB089541110CC021B381E090E002C06E
:10013000880F991F6A95E2F78095822381BB089505
:10014000413051F421B381E090E002C0880F991F43
:100150006A95E2F7822B81BB089541E065E083E078
:100160000E94360080E29EE40E9400018BED95E043
:100170000E9403010E94E4002FEF83ED90E32150E1
:1001800080409040E1F700C0000087EE93E00E94BD
:1001900003012FEF83ED90E3215080409040E1F781
:1001A00000C0000080ED97E00E9403012FEF83ED77
:1001B00090E3215080409040E1F700C000008BEDBB
:1001C00095E00E940301FFCF8FB58E7F8FBD8FB565
:1001D00082608FBD8EB588608EBD8EB580618EBD0C
:1001E0008FB580688FBD8FB58F7B8FBD8EB58E7FAD
:1001F0008EBD8EB58B7F8EBD8EB582608EBD08950F
:1002000097BD86BD08959BBD8ABD0895F894FFCF24
:00000001FF
